{
  "contractName": "TokenFarm",
  "abi": [
    {
      "inputs": [
        {
          "internalType": "contract DappToken",
          "name": "_dappToken",
          "type": "address"
        },
        {
          "internalType": "contract DaiToken",
          "name": "_daiToken",
          "type": "address"
        }
      ],
      "stateMutability": "nonpayable",
      "type": "constructor"
    },
    {
      "anonymous": false,
      "inputs": [
        {
          "indexed": true,
          "internalType": "uint256",
          "name": "date",
          "type": "uint256"
        }
      ],
      "name": "IssuedTokens",
      "type": "event"
    },
    {
      "inputs": [],
      "name": "daiToken",
      "outputs": [
        {
          "internalType": "contract DaiToken",
          "name": "",
          "type": "address"
        }
      ],
      "stateMutability": "view",
      "type": "function",
      "constant": true
    },
    {
      "inputs": [],
      "name": "dappToken",
      "outputs": [
        {
          "internalType": "contract DappToken",
          "name": "",
          "type": "address"
        }
      ],
      "stateMutability": "view",
      "type": "function",
      "constant": true
    },
    {
      "inputs": [
        {
          "internalType": "address",
          "name": "",
          "type": "address"
        }
      ],
      "name": "hasStaked",
      "outputs": [
        {
          "internalType": "bool",
          "name": "",
          "type": "bool"
        }
      ],
      "stateMutability": "view",
      "type": "function",
      "constant": true
    },
    {
      "inputs": [],
      "name": "name",
      "outputs": [
        {
          "internalType": "string",
          "name": "",
          "type": "string"
        }
      ],
      "stateMutability": "view",
      "type": "function",
      "constant": true
    },
    {
      "inputs": [],
      "name": "owner",
      "outputs": [
        {
          "internalType": "address",
          "name": "",
          "type": "address"
        }
      ],
      "stateMutability": "view",
      "type": "function",
      "constant": true
    },
    {
      "inputs": [
        {
          "internalType": "uint256",
          "name": "",
          "type": "uint256"
        }
      ],
      "name": "stakers",
      "outputs": [
        {
          "internalType": "address",
          "name": "",
          "type": "address"
        }
      ],
      "stateMutability": "view",
      "type": "function",
      "constant": true
    },
    {
      "inputs": [
        {
          "internalType": "address",
          "name": "",
          "type": "address"
        }
      ],
      "name": "stakingBalance",
      "outputs": [
        {
          "internalType": "uint128",
          "name": "",
          "type": "uint128"
        }
      ],
      "stateMutability": "view",
      "type": "function",
      "constant": true
    },
    {
      "inputs": [
        {
          "internalType": "uint128",
          "name": "_amount",
          "type": "uint128"
        }
      ],
      "name": "stakeTokens",
      "outputs": [],
      "stateMutability": "nonpayable",
      "type": "function"
    },
    {
      "inputs": [
        {
          "internalType": "uint128",
          "name": "_amount",
          "type": "uint128"
        }
      ],
      "name": "unstakeTokens",
      "outputs": [],
      "stateMutability": "nonpayable",
      "type": "function"
    },
    {
      "inputs": [],
      "name": "issueTokens",
      "outputs": [],
      "stateMutability": "nonpayable",
      "type": "function"
    }
  ],
  "bytecode": "0x60806040526040518060400160405280600f81526020017f4461707020546f6b656e204661726d0000000000000000000000000000000000815250600090805190602001906200005192919062000150565b503480156200005f57600080fd5b50604051620015be380380620015be83398181016040528101906200008591906200022e565b81600260006101000a81548173ffffffffffffffffffffffffffffffffffffffff021916908373ffffffffffffffffffffffffffffffffffffffff16021790555080600360006101000a81548173ffffffffffffffffffffffffffffffffffffffff021916908373ffffffffffffffffffffffffffffffffffffffff16021790555033600160006101000a81548173ffffffffffffffffffffffffffffffffffffffff021916908373ffffffffffffffffffffffffffffffffffffffff160217905550505062000364565b8280546200015e90620002cb565b90600052602060002090601f016020900481019282620001825760008555620001ce565b82601f106200019d57805160ff1916838001178555620001ce565b82800160010185558215620001ce579182015b82811115620001cd578251825591602001919060010190620001b0565b5b509050620001dd9190620001e1565b5090565b5b80821115620001fc576000816000905550600101620001e2565b5090565b600081519050620002118162000330565b92915050565b60008151905062000228816200034a565b92915050565b600080604083850312156200024257600080fd5b6000620002528582860162000217565b9250506020620002658582860162000200565b9150509250929050565b60006200027c82620002ab565b9050919050565b600062000290826200026f565b9050919050565b6000620002a4826200026f565b9050919050565b600073ffffffffffffffffffffffffffffffffffffffff82169050919050565b60006002820490506001821680620002e457607f821691505b60208210811415620002fb57620002fa62000301565b5b50919050565b7f4e487b7100000000000000000000000000000000000000000000000000000000600052602260045260246000fd5b6200033b8162000283565b81146200034757600080fd5b50565b620003558162000297565b81146200036157600080fd5b50565b61124a80620003746000396000f3fe608060405234801561001057600080fd5b506004361061009e5760003560e01c806360ab58521161006657806360ab5852146101475780638da5cb5b14610151578063be22f5461461016f578063c93c8f341461018d578063fd5e6dd1146101bd5761009e565b806306fdde03146100a35780631eddd5ca146100c1578063393a37dc146100dd57806345bc78ab146100f95780635eb186f814610129575b600080fd5b6100ab6101ed565b6040516100b89190610dbd565b60405180910390f35b6100db60048036038101906100d69190610b6b565b61027b565b005b6100f760048036038101906100f29190610b6b565b610532565b005b610113600480360381019061010e9190610b19565b61074d565b6040516101209190610e3f565b60405180910390f35b61013161077c565b60405161013e9190610da2565b60405180910390f35b61014f6107a2565b005b610159610a1a565b6040516101669190610cc8565b60405180910390f35b610177610a40565b6040516101849190610d87565b60405180910390f35b6101a760048036038101906101a29190610b19565b610a66565b6040516101b49190610d6c565b60405180910390f35b6101d760048036038101906101d29190610b94565b610a86565b6040516101e49190610cc8565b60405180910390f35b600080546101fa90610fe1565b80601f016020809104026020016040519081016040528092919081815260200182805461022690610fe1565b80156102735780601f1061024857610100808354040283529160200191610273565b820191906000526020600020905b81548152906001019060200180831161025657829003601f168201915b505050505081565b6000816fffffffffffffffffffffffffffffffff16116102d0576040517f08c379a00000000000000000000000000000000000000000000000000000000081526004016102c790610dff565b60405180910390fd5b600360009054906101000a900473ffffffffffffffffffffffffffffffffffffffff1673ffffffffffffffffffffffffffffffffffffffff166323b872dd3330846040518463ffffffff1660e01b815260040161032f93929190610ce3565b602060405180830381600087803b15801561034957600080fd5b505af115801561035d573d6000803e3d6000fd5b505050506040513d601f19601f820116820180604052508101906103819190610b42565b5080600460003373ffffffffffffffffffffffffffffffffffffffff1673ffffffffffffffffffffffffffffffffffffffff16815260200190815260200160002060008282829054906101000a90046fffffffffffffffffffffffffffffffff166103ec9190610e76565b92506101000a8154816fffffffffffffffffffffffffffffffff02191690836fffffffffffffffffffffffffffffffff160217905550600560003373ffffffffffffffffffffffffffffffffffffffff1673ffffffffffffffffffffffffffffffffffffffff16815260200190815260200160002060009054906101000a900460ff166104d7576006339080600181540180825580915050600190039060005260206000200160009091909190916101000a81548173ffffffffffffffffffffffffffffffffffffffff021916908373ffffffffffffffffffffffffffffffffffffffff1602179055505b6001600560003373ffffffffffffffffffffffffffffffffffffffff1673ffffffffffffffffffffffffffffffffffffffff16815260200190815260200160002060006101000a81548160ff02191690831515021790555050565b6000600460003373ffffffffffffffffffffffffffffffffffffffff1673ffffffffffffffffffffffffffffffffffffffff16815260200190815260200160002060009054906101000a90046fffffffffffffffffffffffffffffffff169050816fffffffffffffffffffffffffffffffff16816fffffffffffffffffffffffffffffffff1610156105f9576040517f08c379a00000000000000000000000000000000000000000000000000000000081526004016105f090610e1f565b60405180910390fd5b600360009054906101000a900473ffffffffffffffffffffffffffffffffffffffff1673ffffffffffffffffffffffffffffffffffffffff1663a9059cbb33846040518363ffffffff1660e01b8152600401610656929190610d1a565b602060405180830381600087803b15801561067057600080fd5b505af1158015610684573d6000803e3d6000fd5b505050506040513d601f19601f820116820180604052508101906106a89190610b42565b5081600460003373ffffffffffffffffffffffffffffffffffffffff1673ffffffffffffffffffffffffffffffffffffffff16815260200190815260200160002060008282829054906101000a90046fffffffffffffffffffffffffffffffff166107139190610ebc565b92506101000a8154816fffffffffffffffffffffffffffffffff02191690836fffffffffffffffffffffffffffffffff1602179055505050565b60046020528060005260406000206000915054906101000a90046fffffffffffffffffffffffffffffffff1681565b600260009054906101000a900473ffffffffffffffffffffffffffffffffffffffff1681565b600160009054906101000a900473ffffffffffffffffffffffffffffffffffffffff1673ffffffffffffffffffffffffffffffffffffffff163373ffffffffffffffffffffffffffffffffffffffff1614610832576040517f08c379a000000000000000000000000000000000000000000000000000000000815260040161082990610ddf565b60405180910390fd5b60005b6006805490508110156109ea5760006006828154811061087e577f4e487b7100000000000000000000000000000000000000000000000000000000600052603260045260246000fd5b9060005260206000200160009054906101000a900473ffffffffffffffffffffffffffffffffffffffff1690506000600460008373ffffffffffffffffffffffffffffffffffffffff1673ffffffffffffffffffffffffffffffffffffffff16815260200190815260200160002060009054906101000a90046fffffffffffffffffffffffffffffffff166fffffffffffffffffffffffffffffffff16905060008111156109d757600260009054906101000a900473ffffffffffffffffffffffffffffffffffffffff1673ffffffffffffffffffffffffffffffffffffffff1663a9059cbb83836040518363ffffffff1660e01b8152600401610983929190610d43565b602060405180830381600087803b15801561099d57600080fd5b505af11580156109b1573d6000803e3d6000fd5b505050506040513d601f19601f820116820180604052508101906109d59190610b42565b505b5050806109e390611013565b9050610835565b50427f04eae11629093e8b18aa27a57b463c1c2666e6dfcd8aacd92809697d9f18e15160405160405180910390a2565b600160009054906101000a900473ffffffffffffffffffffffffffffffffffffffff1681565b600360009054906101000a900473ffffffffffffffffffffffffffffffffffffffff1681565b60056020528060005260406000206000915054906101000a900460ff1681565b60068181548110610a9657600080fd5b906000526020600020016000915054906101000a900473ffffffffffffffffffffffffffffffffffffffff1681565b600081359050610ad4816111b8565b92915050565b600081519050610ae9816111cf565b92915050565b600081359050610afe816111e6565b92915050565b600081359050610b13816111fd565b92915050565b600060208284031215610b2b57600080fd5b6000610b3984828501610ac5565b91505092915050565b600060208284031215610b5457600080fd5b6000610b6284828501610ada565b91505092915050565b600060208284031215610b7d57600080fd5b6000610b8b84828501610aef565b91505092915050565b600060208284031215610ba657600080fd5b6000610bb484828501610b04565b91505092915050565b610bc681610ef0565b82525050565b610bd581610f02565b82525050565b610be481610f54565b82525050565b610bf381610f78565b82525050565b6000610c0482610e5a565b610c0e8185610e65565b9350610c1e818560208601610fae565b610c27816110ba565b840191505092915050565b6000610c3f603683610e65565b9150610c4a826110cb565b604082019050919050565b6000610c62602f83610e65565b9150610c6d8261111a565b604082019050919050565b6000610c85602983610e65565b9150610c9082611169565b604082019050919050565b610ca481610f0e565b82525050565b610cb381610f9c565b82525050565b610cc281610f4a565b82525050565b6000602082019050610cdd6000830184610bbd565b92915050565b6000606082019050610cf86000830186610bbd565b610d056020830185610bbd565b610d126040830184610caa565b949350505050565b6000604082019050610d2f6000830185610bbd565b610d3c6020830184610caa565b9392505050565b6000604082019050610d586000830185610bbd565b610d656020830184610cb9565b9392505050565b6000602082019050610d816000830184610bcc565b92915050565b6000602082019050610d9c6000830184610bdb565b92915050565b6000602082019050610db76000830184610bea565b92915050565b60006020820190508181036000830152610dd78184610bf9565b905092915050565b60006020820190508181036000830152610df881610c32565b9050919050565b60006020820190508181036000830152610e1881610c55565b9050919050565b60006020820190508181036000830152610e3881610c78565b9050919050565b6000602082019050610e546000830184610c9b565b92915050565b600081519050919050565b600082825260208201905092915050565b6000610e8182610f0e565b9150610e8c83610f0e565b9250826fffffffffffffffffffffffffffffffff03821115610eb157610eb061105c565b5b828201905092915050565b6000610ec782610f0e565b9150610ed283610f0e565b925082821015610ee557610ee461105c565b5b828203905092915050565b6000610efb82610f2a565b9050919050565b60008115159050919050565b60006fffffffffffffffffffffffffffffffff82169050919050565b600073ffffffffffffffffffffffffffffffffffffffff82169050919050565b6000819050919050565b6000610f5f82610f66565b9050919050565b6000610f7182610f2a565b9050919050565b6000610f8382610f8a565b9050919050565b6000610f9582610f2a565b9050919050565b6000610fa782610f0e565b9050919050565b60005b83811015610fcc578082015181840152602081019050610fb1565b83811115610fdb576000848401525b50505050565b60006002820490506001821680610ff957607f821691505b6020821081141561100d5761100c61108b565b5b50919050565b600061101e82610f4a565b91507fffffffffffffffffffffffffffffffffffffffffffffffffffffffffffffffff8214156110515761105061105c565b5b600182019050919050565b7f4e487b7100000000000000000000000000000000000000000000000000000000600052601160045260246000fd5b7f4e487b7100000000000000000000000000000000000000000000000000000000600052602260045260246000fd5b6000601f19601f8301169050919050565b7f63616e6e6f7420697373756520746f6b656e7320756e6c6573732063616c6c6560008201527f72206973206f776e6572206f6620636f6e747261637400000000000000000000602082015250565b7f616d6f756e74207374616b65642063616e6e6f74206265206c6573732074686160008201527f6e206f7220657175616c20746f20300000000000000000000000000000000000602082015250565b7f7769746864726177616c20616d6f756e742065786365656473207374616b696e60008201527f672062616c616e63650000000000000000000000000000000000000000000000602082015250565b6111c181610ef0565b81146111cc57600080fd5b50565b6111d881610f02565b81146111e357600080fd5b50565b6111ef81610f0e565b81146111fa57600080fd5b50565b61120681610f4a565b811461121157600080fd5b5056fea264697066735822122096613235f98212231173e07374db8828fde92d17ffb3ecaf8591defc76b7792464736f6c63430008030033",
  "immutableReferences": {},
  "source": "// SPDX-License-Identifier: UNLICENSED\r\npragma solidity ^0.8.3;\r\n\r\nimport \"./DappToken.sol\";\r\nimport \"./DaiToken.sol\";\r\n\r\ncontract TokenFarm {\r\n  string public name = \"Dapp Token Farm\";\r\n  address public owner;\r\n  DappToken public dappToken;\r\n  DaiToken public daiToken;\r\n\r\n  mapping(address => uint128) public stakingBalance;\r\n  mapping(address => bool) public hasStaked;\r\n  address[] public stakers;\r\n\r\n  constructor(DappToken _dappToken, DaiToken _daiToken) {\r\n    dappToken = _dappToken;\r\n    daiToken = _daiToken;\r\n    owner = msg.sender;\r\n  }\r\n\r\n  function stakeTokens(uint128 _amount) public {\r\n    require(_amount > 0, \"amount staked cannot be less than or equal to 0\");\r\n    // transfer mock dai to this address\r\n    daiToken.transferFrom(msg.sender, address(this), _amount);\r\n    // update staking data\r\n    stakingBalance[msg.sender] += _amount;\r\n    if (!hasStaked[msg.sender]) {\r\n      stakers.push(msg.sender);\r\n    }\r\n    hasStaked[msg.sender] = true;\r\n  }\r\n\r\n  function unstakeTokens(uint128 _amount) public {\r\n    uint128 balance = stakingBalance[msg.sender];\r\n    require(balance >= _amount, \"withdrawal amount exceeds staking balance\");\r\n    daiToken.transfer(msg.sender, _amount);\r\n    stakingBalance[msg.sender] -= _amount;\r\n  }\r\n\r\n  event IssuedTokens (\r\n    uint indexed date\r\n  );\r\n  function issueTokens() public {\r\n    require(msg.sender == owner, \"cannot issue tokens unless caller is owner of contract\");\r\n    for (uint256 i = 0; i < stakers.length; ++i) {\r\n      address recipient = stakers[i];\r\n      uint balance = stakingBalance[recipient];\r\n      if (balance > 0) {\r\n        dappToken.transfer(recipient, balance);\r\n      }\r\n    }\r\n    emit IssuedTokens(block.timestamp);\r\n  }\r\n}",
  "sourcePath": "C:/Users/camer/Documents/Blockchain/yield-farm/src/contracts/TokenFarm.sol",
  "compiler": {
    "name": "solc",
    "version": "0.8.3+commit.8d00100c.Emscripten.clang"
  },
  "schemaVersion": "3.3.4",
  "updatedAt": "2021-04-15T01:52:40.661Z",
  "networkType": "ethereum",
  "devdoc": {
    "kind": "dev",
    "methods": {},
    "version": 1
  },
  "userdoc": {
    "kind": "user",
    "methods": {},
    "version": 1
  }
}